:020000040800F2
:1000000020080020010100086D0100086F010008B0
:1000100073010008770100087B0100080000000060
:100020000000000000000000000000007F01000848
:10003000810100080000000083010008850100081C
:100040001B0100081B0100081B010008AF0100088C
:100050001B0100081B0100081B0100081B01000810
:100060001B0100081B0100081B0100081B01000800
:100070001B0100081B0100081B0100081B010008F0
:100080001B0100081B0100081B0100081B010008E0
:100090001B0100081B0100081B0100081B010008D0
:1000A0001B0100081B0100081B0100081B010008C0
:1000B000B12100081B010008B92000081B0100083D
:1000C0001B0100081B0100081B0100081B010008A0
:1000D0001B0100081B010008AF2900081B010008D4
:1000E0001B0100081B0100081B010008DFF80CD0F1
:1000F00003F02AFA004800472501000820080020E4
:100100000648804706480047FEE7FEE7FEE7FEE7B1
:10011000FEE7FEE7FEE7FEE7FEE7FEE7B71F0008A3
:10012000ED0000084FF4A06000F06AF802F0FCFA5D
:1001300002F062FB02F0DFFC02F05CF84FF4E151E8
:1001400042F2107001F0FDFF4FF4E15142F21070E5
:1001500001F0C6FF03A003F029FA01E002F0F8FC69
:10016000FCE700006865680A00000000704700BFF7
:10017000FEE700BFFEE700BFFEE700BFFEE77047F7
:1001800070477047194801680068401C174A1060A2
:100190001748814202D300201146086015480088A4
:1001A00020B114480088401E12490880704710B5DD
:1001B000012000F065FDB8B1012000F071FD0E488E
:1001C000007828B14FF400510C4800F0F6F904E033
:1001D0004FF40051094800F0F2F907480078C04395
:1001E0000549087002F0AFF910BD000004000020BE
:1001F00020A107000000002008000020001001409E
:1002000031490143314A1160704770B50021002324
:100210000F22C47804B32D4C246804F4E064C4F5C0
:10022000E064210AC1F10403CA40447804FA03F1EE
:100230008478144021430901254C0678A15504789F
:1002400004F01F050124AC4005786D11AD0005F1E7
:10025000E025C5F8004109E0047804F01F050124F9
:10026000AC401C4D0678761145F8264070BD1A4A00
:100270000A400243154B1B1F1A60704739B1134ADD
:10028000121D12680243114B1B1D1A6006E00F4A33
:10029000121D126882430D4B1B1D1A607047042803
:1002A00008D14FF0E021096941F004014FF0E0224C
:1002B000116107E04FF0E021096921F004014FF0DE
:1002C000E0221161704700000000FA050CED00E02B
:1002D00000E400E080E100E080FFFF1F10B5012096
:1002E00000F014FC002000F011FC10BD2A49086049
:1002F00070472949091F0860704727498431086001
:10030000704701460020254A10884FF67F42104072
:100310000843224A10807047014600201F4A108877
:100320004FF68072104008431C4A1080704708B591
:1003300000220092194A2C3A0092009A024400923C
:10034000009A116008BD08B50146002000901348CE
:100350002C3800900098084400900098008808BD50
:100360000D489C300068C0B270470C4808300088C7
:1003700040F0010009490831088070470648A03064
:100380000068C0B2704705480830008840F002009D
:10039000024908310880704704860D422C6C0040E9
:1003A00010B50446CC48844208D10121042000F055
:1003B00093FB0021042000F08FFB46E0C7488442F5
:1003C00008D10121082000F087FB0021082000F05F
:1003D00083FB3AE0C248844208D10121102000F09A
:1003E0007BFB0021102000F077FB2EE0BD4884420B
:1003F00008D10121202000F06FFB0021202000F017
:100400006BFB22E0B848844208D10121402000F073
:1004100063FB0021402000F05FFB16E0B3488442FC
:1004200008D10121802000F057FB0021802000F03E
:1004300053FB0AE0AE48844207D10121801500F049
:100440004BFB0021A01500F047FB10BD10B50121AA
:10045000084600F041FB0021012000F03DFB10BDEB
:100460002DE9F0410246002500260020002300244B
:10047000002791F803C00CF00F0591F803C00CF0B1
:10048000100CBCF1000F03D091F802C04CEA050536
:1004900091F800C0BCF1000F31D0146800202BE0AF
:1004A0004FF0010C0CFA00F3B1F800C00CEA03069F
:1004B0009E4220D183004FF00F0C0CFA03F7BC438F
:1004C00005FA03FC4CEA040491F803C0BCF1280FC0
:1004D00006D14FF0010C0CFA00FCC2F814C00AE07F
:1004E00091F803C0BCF1480F05D14FF0010C0CFA94
:1004F00000FCC2F810C0401C0828D1D31460B1F829
:1005000000C0BCF1FF0F34DD546800202EE000F184
:10051000080C4FF0010808FA0CF3B1F800C00CEA1F
:1005200003069E4221D183004FF00F0C0CFA03F713
:10053000BC4305FA03FC4CEA040491F803C0BCF187
:10054000280F05D100F1080C08FA0CF8C2F8148045
:1005500091F803C0BCF1480F07D100F1080C4FF02F
:10056000010808FA0CF8C2F81080401C0828CED305
:100570005460BDE8F0814FF6FF7101800221817067
:100580000421C17070470246002093680B400BB1F4
:10059000012000E0002070470146886880B2704763
:1005A00002460020D3680B400BB1012000E0002080
:1005B00070470146C86880B2704701617047416169
:1005C00070470AB1016100E041617047C160704746
:1005D0004FF480320A43826181618261826982695B
:1005E000704702460020434B18684FF6807318404E
:1005F00040EA021008433F4B186070473E49C8610B
:100600007047F0B50A46002300240021002500F0C1
:100610000046B6F1004F02D1364EF16901E0354E89
:100620007168C0F3034583B200F44016B6F5401F6D
:1006300008D121F070612F4E766826F070662D4F3C
:100640007E6012E000F48016B6F5801F06D1032606
:1006500006FA05F4A14341F0706106E0460D36014B
:1006600003FA06F6B14341F0706122B1460D36013E
:1006700003FA06F6314300F00046B6F1004F02D10E
:100680001C4EF16101E01B4E7160F0BD30B50022DF
:100690008B071C0F0F2303FA04F2164B08338C1040
:1006A00053F824309343134C08348D1044F825300C
:1006B00023468C1053F824308C07240F00FA04F4DE
:1006C00023430C4C08348D1044F8253030BD0A49C2
:1006D000DC3108607047000000080140000C014058
:1006E000001001400014014000180140001C0140AE
:1006F00000200140000001400000204210B501210F
:10070000080700F0F6F900214FF0805000F0F1F9F1
:1007100010BD2A49086270472849086170470146A0
:100720000020274A106820F0E0000843106070475E
:100730002249A0310860704710B502460020204BC6
:10074000186820F00300104318601E4B1B6843F02C
:1007500004031C4C2360012901D130BF00E020BFFD
:10076000184B1B6823F00403164C236010BD14487B
:10077000006840F00400124908600846006840F034
:10078000020008600F48006840F004000D4908604E
:1007900000BF00BF30BF704701460020084A5268C2
:1007A0000A400AB1012000E00020704704490968AE
:1007B00041EA8001024A11607047000000000E42C9
:1007C0000070004010ED00E0DF48006840F00100DC
:1007D000DD49086008464068DC490840DA4948605D
:1007E00008460068DA490840D749086008460068AA
:1007F00020F4802008600846406820F4FE0048602D
:100800004FF41F0088607047CF49096821F4803198
:10081000CD4A11601146096821F480211160B0F5BC
:10082000803F03D0B0F5802F0ED106E0C64909689D
:1008300041F48031C44A116007E0C349096841F4BA
:10084000A021C14A116000E000BF00BF704710B591
:1008500001460022002300204A11012A02D1BA4C8D
:10086000236806E0022A02D1B74C236A01E0B64CA5
:10087000636A01F01F02012494401C400CB1012066
:1008800000E0002010BD38B50020009000240025B5
:1008900000BF3120FFF7DBFF05460098401C0090A9
:1008A0000098B0F5A06F01D0002DF2D03120FFF7F5
:1008B000CEFF08B1012400E00024204638BD0146E7
:1008C0000020A14A106820F0F80040EAC100106042
:1008D0007047A04908607047024600209A4B58684C
:1008E00020F47C1042EA01031843974B586070478C
:1008F00098490866704701460020934A506820F0E6
:1009000003000843506070478F48406800F00C00B7
:100910007047014600208C4A506820F0F0000843E0
:100920005060704701460020874A506820F4E0601C
:1009300008435060704701460020834A506820F405
:10094000605040EAC1005060704729B17E4A527A37
:1009500002437D4B5A7204E07B4A527A82437A4BBF
:100960005A7270477B49D8310860704701460020B1
:10097000754A506820F44040084350607047002199
:10098000714A20321170704A82F82010012802D07A
:1009900004280AD104E001216B4A2032117005E0DD
:1009A0000521694A2032117000E000BF00BF704786
:1009B0006949086070476449096A0143624A1162E3
:1009C0007047654944390860704730B500210022FE
:1009D000002400235C4D6D6805F00C0121B1042951
:1009E00005D0082923D105E05C4D056022E05B4D70
:1009F00005601FE0544D6D6805F47012524D6D682E
:100A000005F48034022505EB92421CB9544D554340
:100A100005600BE04C4D6D6805F400351DB1504D7F
:100A20005543056002E04D4D5543056002E04B4DD6
:100A3000056000BF00BF444D6D6805F0F001090975
:100A4000484D6B5C0568DD4045603F4D6D6805F4C1
:100A5000E061090A434D6B5C4568DD4085603A4DB5
:100A60006D6805F46051C90A3E4D6B5C4568DD4018
:100A7000C560354D6D6805F44041890B3A4D6B5C9E
:100A8000C568B5FBF3F5056130BD29B12E4A526941
:100A900002432D4B5A6104E02B4A526982432A4B90
:100AA0005A61704729B1284A92690243264B9A61DC
:100AB00004E0254A92698243234B9A61704729B129
:100AC000214AD2690243204BDA6104E01E4AD2690E
:100AD00082431D4BDA61704729B11B4AD268024339
:100AE000194BDA6004E0184AD2688243164BDA6088
:100AF000704729B1144A12690243134B1A6104E08A
:100B0000114A12698243104B1A61704712494039E9
:100B1000086070470F49C86470470B49C871704737
:100B20000948406A40F080700749486270470146B2
:100B30000020054A92680A400AB1012000E0002026
:100B40007047014988727047001002400000FFF8AA
:100B5000FFFFF6FE000042428004424200127A008B
:100B600000093D00090000201900002029B1504A69
:100B7000128802434E4B1A8004E04D4A1288824389
:100B80004B4B1A8070474A48001D008840F0100007
:100B90004749091D088070474548001D00884FF6E9
:100BA000EF7108404249091D088070470021404804
:100BB0001C300188001F008841EA0040704700B5E2
:100BC0000246FFF7E0FF100C394918310880091D73
:100BD0000A80FFF7E1FF00BD00B50246FFF7D3FF33
:100BE000C2F30340324908310880091D0A80FFF72B
:100BF000D3FF00BD00B50246FFF7C5FF100C2C491E
:100C000020310880091D0A80FFF7C6FF00BD0020C3
:100C10002749103109880907080B2549143109882B
:100C20000843704700BF2248001D008800F02000E4
:100C30000028F8D070471E48001D00884FF6F77155
:100C400008401B49091D088000BF1948001D008885
:100C500000F008000028F8D0704701460020144A30
:100C6000121D12880A400AB1012000E000207047DE
:100C70000F49091D098881430D4A121D11807047D3
:100C8000014600200A4A121D12880A40D0B2084AC2
:100C900012880A4012B108B1012000E0002070471C
:100CA0000349091D09888143014A121D11807047BB
:100CB0000028004010B50446FE48844208D10121B6
:100CC000C014FFF709FF0021E014FFF705FFC4E09F
:100CD000B4F1804F08D101210846FFF70AFF002137
:100CE0000120FFF706FFB8E0F348844208D1012154
:100CF0000220FFF7FEFE00210220FFF7FAFEACE023
:100D0000EE48844208D101210420FFF7F2FE0021C1
:100D10000420FFF7EEFEA0E0E948844208D101215B
:100D20000820FFF7E6FE00210820FFF7E2FE94E02E
:100D3000E448844208D101211020FFF7DAFE0021A7
:100D40001020FFF7D6FE88E0DF48844208D1012159
:100D50002020FFF7CEFE00212020FFF7CAFE7CE016
:100D6000DA48844208D101214014FFF7B5FE002182
:100D70006014FFF7B1FE70E0D548844209D101212B
:100D8000C804FFF7A9FE00214FF40020FFF7A4FEDE
:100D900063E0D048844209D101210805FFF79CFE99
:100DA00000214FF48010FFF797FE56E0CA488442B6
:100DB00009D101214805FFF78FFE00214FF40010F3
:100DC000FFF78AFE49E0C548844208D1012140204E
:100DD000FFF78FFE00214020FFF78BFE3DE0C0486B
:100DE000844208D101218020FFF783FE002180206A
:100DF000FFF77FFE31E0BB48844208D10121801516
:100E0000FFF777FE0021A015FFF773FE25E0B64837
:100E1000844209D101210804FFF75EFE00214FF44E
:100E20008030FFF759FE18E0B048844209D1012113
:100E30004804FFF751FE00214FF40030FFF74CFE4D
:100E40000BE0AB48844208D101218804FFF744FE3F
:100E500000214FF48020FFF73FFE10BD00220288E2
:100E6000944B98420ED0994B98420BD0B0F1804FE2
:100E700008D0914B984205D0904B984202D0904BAD
:100E8000984204D14FF68F731A404B881A438D4B0A
:100E9000984207D08C4B984204D04FF6FF431A403B
:100EA000CB881A4302808B8883850B880385814B0E
:100EB00098420BD0854B984208D08B4B984205D076
:100EC0008A4B984202D08A4B984201D10B7A038612
:100ED00001238382704770B5002400220023058C13
:100EE0004FF6FE7635400584028C8388048B4FF6DE
:100EF0008F752C40B51E2C400D882C43751E2A4042
:100F00000D892A434D882A436A4DA8420BD06F4D64
:100F1000A84208D0744DA84205D0744DA84202D012
:100F2000734DA84213D14FF6F7752A404D892A43D5
:100F30004FF6FB752A408D882A434FF6FF652B40FC
:100F40004FF6FF552B408D892B43CD892B43838052
:100F50000483CD888586028470BD70B5002400228C
:100F60000023058C4FF6EF7635400584028C83888C
:100F7000048B48F6FF752C404FF6FF452C400D883A
:100F80004FF6FF7606EA05252C434FF6DF752A401B
:100F90000D8906EA05152A434D8806EA05152A43F8
:100FA000444DA84202D0494DA8421DD14FF67F754D
:100FB0002A404D894FF6FF7606EA05152A434FF67B
:100FC000BF752A408D8806EA05152A434FF6FF357E
:100FD0002B404FF2FF752B408D8906EA85052B4388
:100FE000CD8906EA85052B4383800483CD88058758
:100FF000028470BD70B5002400220023058C4FF6DA
:10100000FF6635400584028C8388848B4FF68F758C
:101010002C404FF6FC752C400D882C434FF6FF55A5
:101020002A400D894FF6FF7606EA05252A434D88AA
:1010300006EA05252A431F4DA84202D0234DA842A7
:101040001DD14FF2FF752A404D894FF6FF7606EA13
:1010500005252A434FF6FF352A408D8806EA0525E7
:101060002A434EF6FF752B404DF6FF752B408D89B8
:1010700006EA05152B43CD8906EA05152B43838027
:101080008483CD888587028470BD70B500220023DB
:101090000024058C4EF6FF7635400584038C848849
:1010A000828B48F6FF752A404FF6FF452A400D888F
:1010B00020E00000002C0140000400400008004037
:1010C000000C0040001000400014004000340140BB
:1010D000004C014000500140005401400018004005
:1010E000001C00400020004000400140004401403E
:1010F000004801404FF6FF7606EA05252A434DF6E3
:10110000FF752B400D8906EA05352B434D8806EA0D
:1011100005352B43FA4DA84202D0FA4DA84208D11A
:101120004BF6FF752C408D894FF6FF7606EA851544
:101130002C4384808283CD88A0F84050038470BD06
:10114000828B4FF2FF331A408283828B4FF6FF73FC
:1011500003EA01231A4382837047F0B50C46154613
:10116000002200210026078C4EF6FF7C07EA0C07C0
:101170000784828B018C4FF6FF7707EA043640F62E
:10118000FF473A404FF6FF7707EA05273A434FF605
:10119000FF7707EA03373A43D94FB8420ED0D94F09
:1011A000B8420BD0B0F1804F08D0D74FB84205D02D
:1011B000D64FB84202D0D64FB84206D14DF6FF778F
:1011C000394046F48057394305E047F6FF57394028
:1011D00044F48057394382830184F0BD828B4FF6FB
:1011E000F3731A408283828B0A4382837047F0B57F
:1011F0000C461546002200210026078C4FF6FF6C96
:1012000007EA0C070784828B018C4FF6FF7707EA09
:1012100004264FF60C773A404FF6FF7707EA03179C
:101220002F433A43B64FB8420ED0B64FB8420BD018
:10123000B0F1804F08D0B44FB84205D0B34FB84298
:1012400002D0B34FB84206D14FF6FF57394046F4AB
:101250008077394305E04FF2FF57394044F48077F7
:10126000394382830184F0BD028B4FF2FF331A4071
:101270000283028B4FF6FF7303EA01231A430283B2
:101280007047F0B50C461546002200210026078C59
:101290004FF6EF7C07EA0C070784028B018C4FF6B0
:1012A000FF7707EA041640F6FF473A404FF6FF770C
:1012B00007EA03373A434FF6FF7707EA05273A4331
:1012C0008F4FB8420ED08F4FB8420BD0B0F1804F45
:1012D00008D08D4FB84205D08C4FB84202D08C4F09
:1012E000B84206D14FF6DF77394046F01007394350
:1012F00005E04FF65F77394044F010073943028329
:101300000184F0BD028B4FF6F3731A400283028B07
:101310000A4302837047F0B50C46154600220021AF
:10132000068C4FF6FE773E400684028B018C4FF60A
:101330000C7632407E1C06EA03162E433243704E72
:10134000B0420ED06F4EB0420BD0B0F1804F08D0FB
:101350006D4EB04205D06D4EB04202D06C4EB042E0
:1013600006D14FF6FD76314044F00106314305E0E9
:101370004FF6F576314044F0010631430283018493
:10138000F0BD70B505460C465D4885420ED05D48FF
:1013900085420BD0B5F1804F08D05B48854205D01F
:1013A0005A48854202D05A48854200D100E000BF29
:1013B000208850B92389A28861882846FFF7ABFFAF
:1013C000E1882846FFF79EFF25E0208804280AD1FF
:1013D0002389A28861882846FFF753FFE1882846C1
:1013E000FFF742FF17E0208808280AD12389A28846
:1013F00061882846FFF7FBFEE1882846FFF7EEFEEE
:1014000009E02389A28861882846FFF7A6FEE188C3
:101410002846FFF795FE70BD2DE9F04105460C46C4
:1014200000260127608808B9022600E00026A0886F
:10143000012801D1022700E001272088A0B92389D3
:10144000A28861882846FFF766FFE1882846FFF7F3
:1014500059FF23893A4631462846FFF712FFE188B3
:101460002846FFF701FF13E02389A28861882846F8
:10147000FFF707FFE1882846FFF7F6FE23893A4683
:1014800031462846FFF747FFE1882846FFF73AFF35
:10149000BDE8F0810A884B881A438B881A43CB88B1
:1014A0001A430B891A434B891A438B891A43A0F8B4
:1014B000442070474FF6FF71818000210180C18078
:1014C0004180017270470021018041808180C1808C
:1014D000018141818181C18170470021018041806A
:1014E000012181800021C18001817047002101809C
:1014F00041808180C18001814181818170470000EC
:10150000002C01400034014000040040000800406D
:10151000000C004021B1028842F00102028004E088
:1015200002884FF6FE731A400280704731B1B0F85E
:10153000442042F40042A0F8442005E0B0F84420E2
:10154000C2F30E02A0F8442070471AB183890B43FE
:10155000838102E083898B43838170478182704756
:1015600041EA0203A0F8483070471AB183890B435F
:10157000838102E083898B438381704701894FF621
:10158000F8721140018170470A46002101894FF627
:101590008F73194011430181704730B504460D46E1
:1015A00029462046FFF7F0FF208940F00700208100
:1015B00030BD2DE9F04104460D4616461F46602D0C
:1015C00006D13B46012231462046FFF75AFE05E090
:1015D0003B46012231462046FFF79DFE2946204624
:1015E000FFF7D2FF208940F007002081BDE8F0819D
:1015F00030B50C4600210189C9B24FF6FF7505EAE6
:101600000325154325432943018130BD2DE9F041D0
:1016100005460E4617469846002443463A4631464C
:101620002846FFF7E5FF2C894FF6F870044044F098
:1016300007044FF68F70044044F070042C81BDE81D
:10164000F081F0B504460D4616461F463B4632462D
:1016500029462046FFF7CCFF208940F480402081B6
:10166000F0BD0185828270470A46002101884FF64D
:101670008F731940114301807047F0B50C46154631
:101680001E460021002200230189028B038C4FF6A5
:10169000F877394021434FF6FC473A4040F20117B2
:1016A0003A434FF6DD773B404FF6FF7707EA0617E0
:1016B0002F433B43018102830384F0BD0A4600218E
:1016C000018B4FF68F7319401143018370470A460F
:1016D0000021018B48F6FF7319404FF6FF7303EAB0
:1016E00002231943018370470A460021818B4FF67C
:1016F0008F7319401143818370470A460021818B03
:1017000048F6FF7319404FF6FF7303EA02231943AB
:101710008183704721B1028842F08002028004E098
:1017200002884FF67F731A400280704721B1828889
:1017300042F00402828004E082884FF6FB731A4074
:101740008280704721B1828842F00802828004E0E2
:1017500082884FF6F7731A408280704721B18288E1
:1017600042F00102828004E082884FF6FE731A4044
:10177000828070470A460021018B4FF6F7731940AB
:101780001143018370470A460021018B4FF2FF731A
:1017900019404FF6FF7303EA022319430183704790
:1017A0000A460021818B4FF6F7731940114381835C
:1017B00070470A460021818B4FF2FF7319404FF6A4
:1017C000FF7303EA02231943818370470A4600210D
:1017D000018B4FF6FB7319401143018370470A4692
:1017E0000021018B4FF6FF3319404FF6FF7303EAD8
:1017F00002231943018370470A460021818B4FF66B
:10180000FB7319401143818370470A460021818B85
:101810004FF6FF3319404FF6FF7303EA02231943D3
:10182000818370470A460021018B4FF67F73194070
:101830001143018370470A460021018BC1F30E0159
:101840004FF6FF7303EA02231943018370470A46E8
:101850000021818B4FF67F731940114381837047BC
:101860000A460021818BC1F30E014FF6FF7303EA94
:1018700002231943818370470A460021018C4FF6E9
:10188000FD7319401143018470470A460021018C01
:101890004FF6F77319401143018470470A4600213F
:1018A000018C4FF6DF7319404FF6FF7303EA021302
:1018B0001943018470470A460021018C4FF67F735B
:1018C00019404FF6FF7303EA02131943018470476E
:1018D0000A460021018C4FF6FF5319404FF6FF7363
:1018E00003EA02231943018470470A460021018C50
:1018F0004FF2FF7319404FF6FF7303EA02231943B7
:10190000018470470A460021018C4DF6FF7319408F
:101910004FF6FF7303EA023319430184704730B571
:10192000002301248C40A3B2048C9C430484048CC7
:1019300002FA01F5ADB22C43048430BD30B500236A
:1019400004248C40A3B2048C9C430484048C02FACB
:1019500001F5ADB22C43048430BD70B503460020C0
:1019600000241846183001258D40ACB21D8CA543CB
:101970001D8409B1082909D100EB6100056825F033
:10198000700505600568154305600EE00D1FC5F381
:101990004E052844056825F4E045056005684FF6C6
:1019A000FF7606EA02263543056070BD21B1028844
:1019B00042F00202028004E002884FF6FD731A40F2
:1019C0000280704721B1028842F00402028004E0E4
:1019D00002884FF6FB731A400280704721B182885B
:1019E00042F08002828004E082884FF67F731A40C2
:1019F0008280704702884FF6F7731A40028002888F
:101A00000A430280704782884FF68F731A408280A3
:101A100082880A438280704702894FF6F8731A4021
:101A2000028102890A430281704702894FF67F735F
:101A30001A40028102890A430281704781847047FB
:101A4000818570478186704701877047818770471D
:101A5000A0F84010704702884FF6FF431A400280FA
:101A600002880A43028070470146888E704701460B
:101A7000088F70470146888F70470146B1F84000D3
:101A800070470146888C70470146088D70470246B2
:101A90000020138A0B400BB1012000E000207047AA
:101AA000CA430282704730B502460020002300245A
:101AB000158A05EA0103958905EA010413B10CB101
:101AC000012000E0002030BDCA43028270470000C0
:101AD00010B50446FB48844209D101218803FEF772
:101AE000FBFF00214FF48040FEF7F6FF32E0F6489E
:101AF000844209D101214804FEF7FBFF00214FF485
:101B00000030FEF7F6FF25E0F048844209D10121BC
:101B10008804FEF7EEFF00214FF48020FEF7E9FF76
:101B200018E0EB48844209D10121C804FEF7E1FF27
:101B300000214FF40020FEF7DCFF0BE0E548844273
:101B400008D101210805FEF7D4FF00214FF48010D1
:101B5000FEF7CFFF10BD2DE9F04786B005460E46D3
:101B60000024A24600BFA1460027B08900B100BFF3
:101B70002F462C8A4CF6FF700440F08804432C82D8
:101B8000AC894EF6F3100440B0883189084371895E
:101B900008430443AC81AC8A4FF6FF400440B0894F
:101BA0000443AC8201A8FEF710FFC648874202D169
:101BB000DDF810A001E0DDF80CA0A88900F40040D9
:101BC00040B10AEBCA0000EB0A1031684900B0FBD3
:101BD000F1F807E00AEBCA0000EB0A10316889004F
:101BE000B0FBF1F86420B8FBF0F004012009642197
:101BF00001FB1089A88900F4004040B1322000EBBD
:101C0000C900B0FBF1F000F00700044308E0322007
:101C100000EB09106421B0FBF1F000F00F00044369
:101C20002C8106B0BDE8F0874FF416510160002109
:101C30008180C18001810C21418100218181704717
:101C400010B502460020108A4FF2FF0318400B889F
:101C50004C8823438C882343CC8823431843108229
:101C600010BD0021018041808180C180704721B179
:101C7000828942F40052828104E082894DF6FF732A
:101C80001A4082817047F0B50346002400260025E3
:101C9000002040F66A17B94200D100BF1846C1F3D0
:101CA000421401F01F06012707FA06F5012C01D1A5
:101CB0000C3004E0022C01D1103000E014301AB1D5
:101CC00007682F43076002E00768AF430760F0BD75
:101CD0001AB1838A0B43838202E0838A8B43838217
:101CE0007047028A4FF6F0731A400282028A0A4352
:101CF0000282704782894FF2FF731A408281828983
:101D00000A438281704721B1828942F002028281B6
:101D100004E082894FF6FD731A4082817047028A7F
:101D20004FF6DF731A400282028A0A43028270472A
:101D300021B1028A42F48042028204E0028A4BF618
:101D4000FF731A4002827047C1F308028280704715
:101D500001468888C0F308007047818941F001017D
:101D600081817047028BD2B20283028B42EA012248
:101D700002837047028B02F47F420283028B0A4384
:101D80000283704721B1828A42F02002828204E0FD
:101D9000828A4FF6DF731A408282704721B1828AAD
:101DA00042F01002828204E0828A4FF6EF731A40FA
:101DB0008282704721B1828A42F00802828204E066
:101DC000828A4FF6F7731A408282704721B1828966
:101DD00042F40042828103E08289C2F30E028281D2
:101DE000704721B1828A42F40062828204E0828AD2
:101DF0004FF2FF731A4082827047828A4FF6FB735C
:101E00001A408282828A0A438282704721B1828A82
:101E100042F00202828204E0828A4FF6FD731A4089
:101E20008282704702460020B1F5007F00D100BFDA
:101E300013880B400BB1012000E00020704701F433
:101E40000072B2F5007F00D100BFCA430280704724
:101E500070B50246002400230025002040F66A16D3
:101E6000B14200D100BFC1F3421501F01F030126AA
:101E700006FA03F3012D02D19689334006E0022DC4
:101E800002D1168A334001E0968A33400C120126B3
:101E900006FA04F41688344013B10CB1012000E0B6
:101EA000002070BD10B50022002340F66A14A14244
:101EB00000D100BF0A1201249440A3B2DC43048085
:101EC00010BD0000003801400044004000480040C0
:101ED000004C0040005000400CB5002001900090E4
:101EE0006C48006840F480306A49086000BF694867
:101EF000006800F4003000900198401C01900098A8
:101F000018B90198B0F5A06FF1D16248006800F4EB
:101F1000003010B10120009001E0002000900098F6
:101F2000012843D15C48006840F010005A4908601D
:101F30000846006820F0030008600846006840F08A
:101F400002000860534840685249486008464068AB
:101F500048600846406840F4806048600846406831
:101F600020F47C1048600846406840F4E81048605F
:101F70000846006840F08070086000BF454800686F
:101F800000F000700028F9D04248406820F00300BB
:101F9000404948600846406840F00200486000BF81
:101FA0003C48406800F00C000828F9D10CBD10B581
:101FB000FFF792FF10BD10B53648006840F00100F1
:101FC000344908600846406834490840314948604F
:101FD00008460068324908402E49086008460068F3
:101FE00020F4802008600846406820F4FE00486025
:101FF0004FF41F008860FFF7DAFF4FF000602949B7
:10200000086010BD10B5002100200022214B5B6844
:1020100003F00C0121B1042906D0082928D107E0DA
:10202000214B224C236027E01F4B204C236023E0F0
:10203000184B5B6803F47010164B5B6803F4803236
:10204000022303EB904022B9194B4343174C236002
:102050000DE0104B5B6803F4003323B1144B434392
:10206000124C236003E0104B4343104C236003E009
:102070000D4B0E4C236000BF00BF064B5B68C3F3E3
:1020800003130C4CE15C094B1B68CB40074C2360ED
:1020900010BD000000100240002002400000FFF8C8
:1020A000FFFFF6FE08ED00E000127A00200000209D
:1020B00000093D002400002010B501217148FFF700
:1020C000E6FC60B17048008840F400406E4908802A
:1020D0006EA001F06BFA01216A48FFF7F5FC10BD14
:1020E0007FB505460C4601210420FEF7E8FC681E7A
:1020F00080B2ADF80400601E80B2ADF80000002090
:10210000ADF80600ADF8020069465E48FEF7A6FE8F
:10211000012211465B48FFF718FA1E208DF80C00CB
:1021200001208DF80F0003208DF80D0002208DF89E
:102130000E0003A8FEF769F801215248FFF7EAF9FB
:102140007FBD7FB505460C4601210846FEF7B7FC6A
:10215000681E80B2ADF80800601E80B2ADF80400C1
:102160000020ADF80A00ADF8060001A94FF080404C
:10217000FEF774FE012211469007FFF7E6F91C20D6
:102180008DF8000001208DF8030002208DF8010079
:102190008DF802006846FEF738F801218807FFF73E
:1021A000B9F97FBD10B50E213948FFF74DFC10BDC0
:1021B00010B501218807FFF776FCD0B135480078CB
:1021C000401C344908700846007803280DDB0020C5
:1021D000087001218807FFF777FCFFF7E3FF002174
:1021E0004FF08040FFF796F903E001218807FFF7E1
:1021F0006BFC10BD00B589B001210220FEF75FFC29
:1022000001210920FEF74EFC01212348FEF7F9F9D0
:102210002020ADF8200018208DF8230003208DF831
:10222000220008A91D48FEF71BF9C720ADF81800C9
:1022300041F61F40ADF814000020ADF81A00ADF8CB
:10224000160005A91248FEF709FE6020ADF804004B
:102250000120ADF806000020ADF80C0001A90C48E3
:10226000FEF77BFE08210A48FFF78DFA0121084896
:10227000FFF750F909B000BD10B518210448FFF769
:10228000E3FB10BD000800403C00002068656800CA
:10229000000400403400002000081A00000C014037
:1022A00073B5054601A801F003F90446606900F220
:1022B0006C7060612C222146284601F0A3F87CBD99
:1022C0000FB410B50798A0F26C70079002A801F047
:1022D00045F810BC5DF814FB10B5FEF767FC10BDA7
:1022E00030B58BB00446FEF761FC054629466846CA
:1022F000FFF7D6FF2C226946204601F083F80BB089
:1023000030BD10B50446FEF78DFC2046FEF757FCA5
:10231000FEF788FC10BD0FB410B588B01C220EA9C2
:10232000684601F06FF80AA80FC8FFF7C9FF044616
:10233000FFF7E7FF08B010BC5DF814FB08B54FF4D9
:10234000C060FDF75DFF03208DF8000001208DF8CF
:10235000010000208DF8020001208DF8030068467E
:10236000FDF753FF08BD10B501214FF0C050FEF737
:10237000A6FB0120FEF7CDF9FDF7B0FF0120FEF727
:10238000FEFA00BF4120FEF762FA0028FAD04FF4AF
:102390008070FEF710FB0120FEF713FBFEF74BFCED
:1023A000FEF740FC01210846FEF7E0FBFEF73AFC91
:1023B00047F6FF70FEF710FCFEF734FC10BD2DE968
:1023C000FF4105460E46174600240020009001906C
:1023D0000290039026E000BF20216548FFF722FD10
:1023E0000028F9D06248FFF7B3FC2146621C94B282
:1023F0004DF82100601E5DF820000D2802D1601EFE
:1024000084B20FE0601E5DF82000302804D3601E07
:102410005DF82000392804D956A001F0C7F8601EE5
:1024200084B200BFBC42D6DB022F09D101983038FC
:102430000099303901EB810100EB410084B218E0D2
:10244000039830380299303901EB810100EB4101EA
:102450000198303800EBC00202EB001001EB800164
:102460000098303800EB4002C2EBC01001EBC00016
:1024700084B2B44201D8AC4208D23246294648A0C0
:1024800001F094F8002004B0BDE8F0812046FAE79E
:1024900000B593B02C2108A800F0CDFF4C4801F006
:1024A00085F84CA001F082F840F2DD700D900A2012
:1024B0000C900D200B9002200A901E2009901520F0
:1024C00008901C220CA9684600F09CFF08A80FC8C1
:1024D000FFF721FF13B000BD10B50420FDF733FF57
:1024E0004AF2A55188420FD042A001F05FF8FFF7F1
:1024F0003AFFFFF7CDFF45A001F058F84AF2A55189
:102500000420FDF714FF19E07B20FEF7A0F918B1B5
:1025100043A001F04BF806E07A20FEF798F910B1DD
:1025200046A001F043F84BA001F040F8FEF783FB12
:1025300001210846FEF71AFBFEF774FBFFF7FEFECB
:10254000FEF7EEFA10BD00B58FB004A8FFF7C8FE85
:10255000DDE905210498CDE900120290DDE907309C
:10256000421C41A0099901F021F80FB000BD000004
:1025700000380140506C6561736520656E7465724A
:102580002076616C6964206E756D6265722062658B
:10259000747765656E203020616E6420390D0A0005
:1025A000506C6561736520656E7465722076616C30
:1025B0006964206E756D6265722062657477656509
:1025C0006E20256420616E642025640D0A000000E1
:1025D000683A0008C7EBCAE4C8EBC4EAB7DDD4DA4E
:1025E00031393730B5BD32303337D6AEBCE40D0AA1
:1025F0000000000052544320BBB9C3BBD3D0B1BBD1
:10260000C9E8D6C32E2E2E2E0D0A000052544320A8
:10261000B3F5CABCBBAF2E2E2E2E0D0A0000000053
:10262000B7A2C9FAD2BBB4CEB5E7D4B4C9CFB5E727
:10263000D6D8C6F42E2E2E2E0D0A0000B7A2C9FA47
:10264000D2BBB4CECDE2B2BFB8B4CEBB2E2E2E2EAE
:102650000D0A0000B2BBD0E8D2AAC9E8D6C35243E3
:10266000542E2E2E2E0D0A0054696D653A202564D5
:102670002D25642D2564202020253032643A253014
:1026800032643A25303264200D0A00004FF0E02118
:1026900048617047012808D14FF0E021096941F0F5
:1026A00001014FF0E02211610EE0811C41B94FF0B1
:1026B000E021096921F001014FF0E022116103E0FE
:1026C00000214FF0E0229161704740B14FF0E021CE
:1026D000096941F002014FF0E022116107E04FF07B
:1026E000E021096921F002014FF0E02211617047F9
:1026F0004FF0E0208069704710B5014600220023AA
:102700000020CB10022B03D14FF0E024226902E01D
:102710004FF0E024E26901248C4014400CB1012008
:1027200000E0002010BD000000B585B06846FEF74F
:102730004CF96FF00400FDF7B2FD0020FFF7C5FF74
:1027400029490198B0FBF1F0284908704FF4FA517B
:102750000198B0FBF1F02649088005B000BD10B526
:1027600004462249097801FB04F0FFF78FFF00209F
:10277000FFF790FF0120FFF78DFF00BF1020FFF74C
:10278000BBFF1C490870084600780128F6D1C01E1E
:10279000FFF780FF0020FFF77DFF10BD70B50446F6
:1027A0001348008800FB04F5B5F1807F01D36FF07A
:1027B0007F452846FFF76AFF0020FFF76BFF0120E7
:1027C000FFF768FF00BF1020FFF796FF0949087068
:1027D000084600780128F6D1C01EFFF75BFF0020F5
:1027E000FFF758FF70BD000000127A00360000208D
:1027F000380000203A00002000B585B0012144F2E5
:102800000400FEF74FF94FF40070ADF810001820E7
:102810008DF8130003208DF8120004A97B48FDF702
:102820001FFE4FF48060ADF8100004208DF81300F7
:1028300003208DF8120004A97448FDF711FE4FF42F
:10284000165000900020ADF80400ADF80600ADF879
:102850000800ADF80C000C20ADF80A0069466C4881
:10286000FFF779F940216A48FFF7E9FA012240F2BF
:1028700025516748FFF707FA012240F227716448A3
:10288000FFF701FA01216248FFF7F1F905B000BD39
:1028900070B504460D46E1B25D48FFF755FA00BF3A
:1028A00080215B48FFF7BEFA0028F9D0204670BDB2
:1028B00010B5044621465648FFF746FA00BF80216E
:1028C0005348FFF7AFFA0028F9D010BD10B5044601
:1028D0000BE014F8011B4E48FFF736FA00BF8021C9
:1028E0004B48FFF79FFA0028F9D020780028F0D154
:1028F00010BD00B587B001214804FEF7E0F80121C2
:102900000420FEF7CFF818208DF81B000420ADF846
:10291000180003208DF81A0006A93C48FDF7A0FD19
:1029200004208DF81B000820ADF8180003208DF856
:102930001A0006A93548FDF793FD4FF41650029092
:102940000020ADF814000C20ADF812000020ADF806
:102950001000ADF80E00ADF80C0002A92D48FFF7ED
:10296000FAF8012240F225512A48FFF78CF901219B
:102970002848FFF77CF926208DF8040001208DF807
:1029800007008DF8050003208DF8060001A8FDF76B
:102990003CFC41F61F416320FFF7A2FB00201E49CB
:1029A000088000211D48FEF7B5FD07B000BD10B539
:1029B00040F225511748FFF735FA28B31548FFF7BD
:1029C000C7F9C4B2144800880020E8B11248008852
:1029D000B0F5C87F12DA00211048FFF72FF80E4833
:1029E000008818B901210D48FEF794FD0A490888AE
:1029F000411C094A11800A490C5405E00648008828
:102A000040F400400449088010BD00000008014067
:102A100000380140004400403C0000200008004015
:102A20007000002008B501210420FEF73BF80220C9
:102A3000ADF8000010208DF8030002208DF8020090
:102A400069466648FDF70CFD01210420FEF72AF8CF
:102A50001020ADF8000004208DF8030002208DF84E
:102A6000020069465D48FDF7FBFC01210420FEF7EA
:102A700019F82020ADF8000010208DF80300022086
:102A80008DF8020069465548FDF7EAFC0121042053
:102A9000FEF708F84020ADF8000010208DF8030084
:102AA00002208DF8020069464C48FDF7D9FC01214F
:102AB0000420FDF7F7FF8020ADF8000010208DF80E
:102AC000030002208DF8020069464448FDF7C8FC67
:102AD00001211020FDF7E6FF4FF40050ADF8000093
:102AE00010208DF8030002208DF8020069463C4852
:102AF000FDF7B6FC08BD10B5FFF794FF0A2000F003
:102B000069FB00F074FB00F005FC00F0C8FB4120FD
:102B100000F0D2FB4FF400513148FDF74EFD0A2082
:102B200000F058FB4FF400512D48FDF748FD0A20F6
:102B300000F050FB4FF400512948FDF73EFD0A20FC
:102B400000F048FB4FF400512548FDF738FD10BD5B
:102B500010B52449522000F0A7F90446002C3BD1BF
:102B6000214800F0CBF90446002C35D11E4800F076
:102B700033FA044684BB01201C49087008460078DB
:102B8000032202EB8000C1B2174B194A602000F00B
:102B90005EFA044604BBFCB914480078032202EB39
:102BA0008000C1B2104B124A602000F050FA0F4969
:102BB0000978002202EB8101C8B20E4900F07EFACA
:102BC00004460DA000F0F2FCFFF756FB0121880738
:102BD000FEF7A0FC00F0A4FB10BD000000080140BF
:102BE000001001404F000020510000203E00002056
:102BF0005500002090030020B3C9B9A6B6C1D0B4D7
:102C00000A0000002DE9F04106460D464021F94832
:102C1000FDF7D5FC8021F748FDF7D1FC7E2000EAC6
:102C20004607082417E007F0800020B12021F14872
:102C3000FDF7C3FC03E02021EE48FDF7C0FC402176
:102C4000EC48FDF7BAFC7806070E4021E948FDF78D
:102C5000B6FC601EC4B2002CE5DC082417E005F0C9
:102C6000800020B12021E348FDF7A7FC03E02021EC
:102C7000E048FDF7A4FC4021DE48FDF79EFC680615
:102C8000050E4021DB48FDF79AFC601EC4B2002C03
:102C9000E5DC8021D748FDF790FC4021D548FDF7C1
:102CA0008CFCBDE8F0812DE9F0410646002580212D
:102CB000D048FDF784FC7E2000EA460040F0800703
:102CC000082417E04021CB48FDF779FC07F080008D
:102CD00020B12021C748FDF770FC03E02021C54842
:102CE000FDF76DFC4021C348FDF767FC7806070E31
:102CF000601EC4B2002CE5DC082413E04021BD486E
:102D0000FDF75DFC6806050E4021BA48FDF755FC4D
:102D10001021B848FDF737FC012801D145F0010525
:102D2000601EC4B2002CE9DC8021B248FDF745FCEE
:102D30004021B048FDF741FC2846BDE8F08170B560
:102D400005460C4600262846FFF7ADFF064646EA34
:102D500004012846FFF756FF70BD70B505460C46C6
:102D600000262846FFF79FFF064626EA040128466C
:102D7000FFF748FF70BD2DE9FE4F06468846914695
:102D80009A46DDF830B0FE200290002001900090BD
:102D90000C2E06D00E2E09D112200190102000908A
:102DA00005E0772001903020009000E000BF00BFD8
:102DB000019840F080010220FFF724FF80210420C9
:102DC000FFF7CBFF00210120FFF71CFF80210A2025
:102DD000FFF7B5FF002505E018F805100920FFF7FB
:102DE00011FF6D1C4D45F7D331460120FFF70AFF57
:102DF0000C2E03D180210D20FFF7A1FF4FF4FA65BF
:102E000000BF0420FFF74FFF04466D1E35B104F0EC
:102E1000010018B9009820400028F2D080210D2030
:102E2000FFF79BFF95B30620FFF73DFF00F01B0067
:102E300068BB002002900198204000F0010008B11A
:102E4000FF2002900C2E24D10A20FFF72CFF04460D
:102E50000C20FFF728FF00F007072FB1601E07EBDB
:102E6000C000CBF8000002E0E000CBF8000004B99D
:102E70000124122C00DD1224002505E00920FFF7B3
:102E800012FF0AF805006D1CA542F7D301E0FE20F1
:102E9000029080210C20FFF752FF00210120FFF754
:102EA000B1FE0298BDE8FE8F70B588B005460C46AD
:102EB00008210846FFF751FF07210D20FFF7A2FE6A
:102EC00003211420FFF73BFF8DF8085007A802AB41
:102ED000012202A900900C20FFF74DFF06464EB9D3
:102EE0000798102806D19DF8080020709DF8090069
:102EF000607000E0FE26304608B070BDF0B587B0C7
:102F00000546002708210846FFF727FF00210D206E
:102F1000FFF778FE80210E20FFF71FFF93208DF82A
:102F2000040020208DF8050006A801AB022201A9AB
:102F300000900C20FFF71FFF064686B9002407E02B
:102F400001A8005D285501A8005D4740601CC4B27F
:102F5000042CF5DB01A8005DB84200D0FE268021DC
:102F60000E20FFF7ECFE304607B0F0BD2DE9F04132
:102F700007468846154604210520FFF7EEFE00218E
:102F80000120FFF73FFE80210A20FFF7D8FE002432
:102F900005E0395D0920FFF735FE601CC4B24445E9
:102FA000F7DB03210120FFF72DFEFF2400BF0520E2
:102FB000FFF779FE0646601EC4B21CB106F004009D
:102FC0000028F4D02220FFF76EFE28702120FFF7A2
:102FD0006AFE6870BDE8F08170B588B00546932040
:102FE0008DF8080070208DF8090000208DF80E0083
:102FF00000240DE000080140295D02AAA01C115424
:103000009DF80E00295D48408DF80E00601CC4B28A
:10301000042CF1DB0DF10F02072102A8FFF7A6FF38
:1030200008210846FFF799FE07A802AB092202A96A
:1030300000900C20FFF79FFE064626B90798182837
:1030400001D1002600E0FE26304608B070BD2DE913
:10305000F04387B006460F46904699468DF80460C7
:103060008DF80570002406E018F8041001AAA01CD1
:103070001154601CC4B2062CF6DB002407E019F8DA
:10308000041001AA04F108001154601CC4B2062CFB
:10309000F5DB06A801AB0C2201A900900E20FFF77A
:1030A0006AFE05462DB90820FFF7FDFD00F0080077
:1030B00000B9FE25284607B0BDE8F083F0B587B01B
:1030C00005460E4630208DF804008DF805500DF1B0
:1030D0000602022101A8FFF749FF06A801AB04225E
:1030E00001A900900C20FFF746FE074667B9069835
:1030F000902809D1002404E001A8005D3055601C2F
:10310000C4B2102CF8DB00E0FE27384607B0F0BD53
:10311000F0B587B006460F46A0208DF804008DF864
:1031200005600DF10602022101A8FFF71FFF06A8A6
:1031300001AB042201A900900C20FFF71CFE0546FC
:1031400045B90698042805D19DF8040000F00F0049
:103150000A2800D0FE250DBB002404E0385D01A93B
:103160000855601CC4B2102CF8DB05AA102101A878
:10317000FFF7FCFE06A801AB122201A900900C206B
:10318000FFF7F9FD054645B90698042805D19DF8D5
:10319000040000F00F000A2800D0FE25284607B0E2
:1031A000F0BD00B587B050208DF8040000208DF8E8
:1031B00005000DF10602022101A8FFF7D7FE06A8BF
:1031C00001AB042201A900900C20FFF7D4FD0020E0
:1031D00007B000BD002107E0002200E0521C4EF6BF
:1031E00060239A42FAD3491C8142F5D3704710B547
:1031F00002215848FDF7E1F90120FFF7EBFF02211A
:103200005448FDF7DCF90120FFF7E4FF02215148A3
:10321000FDF7D3F90A20FFF7DDFF0220FFF743FD9A
:1032200080281ED181014C48FDF7C7F90A20FFF71D
:10323000D1FF4FF400514848FDF7C1F90A20FFF7CC
:10324000C9FF4FF400514448FDF7B7F90A20FFF7D2
:10325000C1FF4FF400514048FDF7B1F90A20FFF7D4
:10326000B9FF0F210120FFF7CDFC3D211120FFF711
:10327000C9FC1E212D20FFF7C5FC00212C20FFF7E3
:10328000C1FC8D212A20FFF7BDFC3E212B20FFF73A
:10329000B9FC40211520FFF7B5FC002010BD10B58A
:1032A0001420FFF700FD044604F0030018B90321C1
:1032B0001420FFF744FD10BD10B50446412C25D164
:1032C00008210846FFF749FD3D211120FFF79AFC30
:1032D00086211720FFF796FC7F212620FFF792FC1E
:1032E0001E212D20FFF78EFC00212C20FFF78AFCE9
:1032F0008D212A20FFF786FC3E212B20FFF782FC40
:103300000120FFF767FFFFF7CAFF01E0FF2010BDB4
:103310000020FCE710B503211420FFF71EFD10BDAF
:1033200038B515E069465220FFF7BEFD044664B18A
:1033300069465220FFF7B8FD044634B16946522071
:10334000FFF7B2FD044604B138BD0A20FFF742FF83
:10335000E8E70000000801400010014038B5D0E95E
:103360000221491E01EB410102EBC1014268C1EBA0
:10337000011102EB81010268C1EB011102EB810234
:10338000D0E9043101EB410103EB81013023A1F5C8
:10339000527191FBF3F4174D6C4302EBC41291FB95
:1033A000F3F403FB141100921A2902DB124B1A44A6
:1033B00000920C2291FBF2F3104C6343009C04EB4F
:1033C000C313009391FBF2F302FB13110C4A08E0C4
:1033D000491E40F2A324535C6343009C04EBC313D7
:1033E00000930029F4DC0146684600F067F8009875
:1033F00038BD00003F0C0F008051010067C2030080
:103400004E3A000840EA01039B0703D009E008C9CF
:10341000121F08C0042AFAD203E011F8013B00F899
:10342000013B521EF9D27047D2B201E000F8012BE5
:10343000491EFBD270470022F6E710B513460A4634
:1034400004461946FFF7F0FF204610BD2DE9F05F56
:103450000546002092469B46884606468146402403
:103460001BE0284641464746224600F08EF8534668
:103470005A46C01A914110D311461846224600F010
:1034800075F82D1A67EB01084F46224601200021EE
:1034900000F06CF817EB00094E41201EA4F1010466
:1034A000DFDC484631462A464346BDE8F09F00002F
:1034B000014900F003B80000F003002010B50068D7
:1034C0003C22B0FBF2F302FB1303B0FBF2F00B6003
:1034D000B0FBF2F302FB1303B0FBF2F018224B60D7
:1034E000B0FBF2F302FB1303B0FBF2F0021D8B60A2
:1034F0000723B2FBF3F403FB1422800040F2B55320
:1035000000F66C308A61B0FBF3F2B0FBF3F403FB1E
:103510001400443280084A61C8613B2802D39207F4
:1035200000D0401C0022074C13460A61E25C824234
:1035300003D8801A5B1C0B61F8E7401CC860084682
:1035400010BD00005A3A0008064C074D06E0E0683E
:1035500040F0010394E8070098471034AC42F6D3DA
:10356000FCF7C8FDAC3A0008CC3A0008202A04DB7E
:10357000203A00FA02F1002070479140C2F1200386
:1035800020FA03F3194390407047202A04DB203AC5
:1035900021FA02F00021704721FA02F3D040C2F173
:1035A0002002914008431946704700000FB4054BB4
:1035B00010B503A9044A029800F018F810BC5DF891
:1035C00014FB0000912800086C00002002E008C8ED
:1035D000121F08C1002AFAD170477047002001E08D
:1035E00001C1121F002AFBD1704700002DE9FF4FD7
:1035F0008DB00F460546002606E025280BD0DDE9F4
:103600000F1290476D1C761C28780028F5D111B058
:103610003046BDE8F08F0024A246A1460122EC49C5
:1036200000E0044315F8013F203B02FA03F0084292
:10363000F7D128782A2810D06FF02F022878A0F12F
:103640003001092914D80AEB8A0102EB410144F048
:10365000020400EB010A6D1CF0E701CF5FEA000AEB
:1036600003D544F40054CAF1000A44F002046D1C6E
:1036700028782E2817D115F8010F44F004042A28C1
:103680000ED06FF02F022878A0F1300109290AD856
:1036900009EB890102EB410100EB01096D1CF2E726
:1036A00057F8049B6D1C28786C280FD006DC4C283A
:1036B00017D068280DD06A2814D104E0742810D0DF
:1036C0007A280FD10DE044F400140AE044F4801489
:1036D00001E044F440146978814202D104F5801479
:1036E0006D1C6D1C2A786E2A1FD00CDC632A31D029
:1036F00004DC002A8BD0582A11D1A3E0642A68D0B8
:10370000692A0CD165E0732A2ED004DC6F2A73D0AD
:10371000702A04D19BE0752A6FD0782A6ED01046AB
:10372000DDE90F129047761C50E1C4F302500228E5
:1037300006D0032809D0042801CF09D0066045E14E
:1037400001CFF117C0E9006140E101CF06803DE102
:1037500006703BE117F8040B8DF8000000208DF88F
:103760000100EB46012003E057F804BB4FF0FF30A7
:1037700061074FF0000102D40DE008F10101884615
:1037800049450FDA8045F8DB1BF808100029F4D111
:1037900008E008F1010188468142FADB1BF80810B5
:1037A0000029F6D1DDE90F23AAEB08008146214666
:1037B00000F036F9304400EB080604E0DDE90F12B2
:1037C0001BF8010B9047B8F10108F7D22146484693
:1037D000F7E00A21C4F302534FF0000B0891022BCB
:1037E00004D001CFC117032B09D00AE0FF1D27F039
:1037F0000707F7E8020108E032E01FE020E000B22E
:10380000C117042B01D140B2C117031E71F100038F
:1038100007DA4FF0000CD0EB0C006CEB01012D230C
:1038200002E0230504D52B238DF82430012303E087
:10383000E30701D02023F7E7984658E00A2110E07B
:1038400010210EE010204FF0000B08900CE010212A
:103850004FF0000B44F004044FF00809089103E016
:1038600008214FF0000B0891C4F30253022B04D03F
:1038700001CF0021032B06D006E0FF1D27F007072C
:10388000F7E8020103E080B2042B00D1C0B24FF090
:10389000000823072BD5702A07D0DDF820C08CF054
:1038A000100C5CEA0B0C05D00EE040238DF82430A0
:1038B000012308E050EA010306D030238DF82430BC
:1038C0008DF8252002239846DDF820C08CF0080CE6
:1038D0005CEA0B0C0BD150EA010301D1630706D55A
:1038E00030238DF824304FF00108A9F10109582A3E
:1038F00004D038A20B9208AA0A920BE03AA2F9E788
:103900005B46089AFFF7A2FD0B9B9B5C0A9A521E2E
:103910000A92137050EA0102F2D10A98ADEB00004E
:1039200000F1200B600702D524F4803401E04FF051
:103930000109D94502DDA9EB0B0000E0002000EBF6
:103940000B0141440890AAEB010AE00306D4DDE92B
:103950000F232146504600F063F806444FF000095B
:1039600008E009A911F80900DDE90F12904709F1F3
:103970000109761CC145F4DBE0030CD5DDE90F231A
:103980002146504600F04CF8064404E0DDE90F12F1
:1039900030209047761C0899481E08900029F5DCD5
:1039A00008E00A980A990078491C0A91DDE90F128B
:1039B0009047761CBBF10001ABF1010BF1DC214615
:1039C0005046DDE90F2300F019F806446D1C1BE694
:1039D00009280100303132333435363738396162E5
:1039E00063646566000000003031323334353637A9
:1039F0003839414243444546000000002DE9F0417A
:103A0000044600251E461746880404D405E03946BE
:103A10002020B0476D1C641EF9D52846BDE8F08112
:103A20002DE9F041044600251E469046C80301D505
:103A3000302700E02027880404D505E041463846B9
:103A4000B0476D1C641EF9D52846BDE8F0811F1CE7
:103A50001F1E1F1E1F1F1E1F1E1F1F1D1F1E1F1E7E
:103A60001F1F1E1F1E1F00003D3D3D3D3D3D3D3DB6
:103A70003D3D3D3D3D3D3D3D3D3D3D3D3D3D3D5261
:103A8000544320CAB1BCE4C8D5C6DAC9E8D6C33DA0
:103A90003D3D3D3D3D3D3D3D3D3D3D3D3D3D3D3D56
:103AA0003D3D3D3D3D3D3D3D3D0D0A00CC3A0008CC
:103AB0000000002070000000CC3500083C3B0008EE
:103AC00070000020B0070000DC3500080000000096
:103AD00000000000000000000001020304010203D6
:103AE00004060708090204060800000000A24A04B0
:103AF000000000000000000001020304060708099E
:103B000000000000000000000000006C69752D62DC
:103B1000726964676500000000000000000000009A
:103B200000FFFFFFFFFFFF0000000000000000009B
:0C3B300000000000000000000000000089
:04000005080000ED02
:00000001FF
